{
  "contractName": "cUSD_spender",
  "abi": [
    {
      "inputs": [
        {
          "internalType": "contract IERC20",
          "name": "_cUSDAddress",
          "type": "address"
        }
      ],
      "payable": false,
      "stateMutability": "nonpayable",
      "type": "constructor"
    },
    {
      "anonymous": false,
      "inputs": [
        {
          "indexed": true,
          "internalType": "address",
          "name": "from",
          "type": "address"
        },
        {
          "indexed": true,
          "internalType": "address",
          "name": "to",
          "type": "address"
        },
        {
          "indexed": false,
          "internalType": "uint256",
          "name": "value",
          "type": "uint256"
        }
      ],
      "name": "cUSDTransferred",
      "type": "event"
    },
    {
      "constant": true,
      "inputs": [],
      "name": "cUSD",
      "outputs": [
        {
          "internalType": "contract IERC20",
          "name": "",
          "type": "address"
        }
      ],
      "payable": false,
      "stateMutability": "view",
      "type": "function"
    },
    {
      "constant": false,
      "inputs": [
        {
          "internalType": "address",
          "name": "recipient",
          "type": "address"
        },
        {
          "internalType": "uint256",
          "name": "amount",
          "type": "uint256"
        }
      ],
      "name": "send",
      "outputs": [],
      "payable": false,
      "stateMutability": "nonpayable",
      "type": "function"
    }
  ],
  "bytecode": "0x608060405234801561001057600080fd5b506040516104c43803806104c48339818101604052602081101561003357600080fd5b8101908080519060200190929190505050806000806101000a81548173ffffffffffffffffffffffffffffffffffffffff021916908373ffffffffffffffffffffffffffffffffffffffff16021790555050610430806100946000396000f3fe608060405234801561001057600080fd5b50600436106100365760003560e01c80631fccf6721461003b578063d0679d3414610085575b600080fd5b6100436100d3565b604051808273ffffffffffffffffffffffffffffffffffffffff1673ffffffffffffffffffffffffffffffffffffffff16815260200191505060405180910390f35b6100d16004803603604081101561009b57600080fd5b81019080803573ffffffffffffffffffffffffffffffffffffffff169060200190929190803590602001909291905050506100f8565b005b6000809054906101000a900473ffffffffffffffffffffffffffffffffffffffff1681565b806000809054906101000a900473ffffffffffffffffffffffffffffffffffffffff1673ffffffffffffffffffffffffffffffffffffffff1663dd62ed3e33306040518363ffffffff1660e01b8152600401808373ffffffffffffffffffffffffffffffffffffffff1673ffffffffffffffffffffffffffffffffffffffff1681526020018273ffffffffffffffffffffffffffffffffffffffff1673ffffffffffffffffffffffffffffffffffffffff1681526020019250505060206040518083038186803b1580156101cb57600080fd5b505afa1580156101df573d6000803e3d6000fd5b505050506040513d60208110156101f557600080fd5b8101908080519060200190929190505050101561027a576040517f08c379a000000000000000000000000000000000000000000000000000000000815260040180806020018281038252600e8152602001807f4e6f7420617574686f72697a656400000000000000000000000000000000000081525060200191505060405180910390fd5b6000809054906101000a900473ffffffffffffffffffffffffffffffffffffffff1673ffffffffffffffffffffffffffffffffffffffff166323b872dd3384846040518463ffffffff1660e01b8152600401808473ffffffffffffffffffffffffffffffffffffffff1673ffffffffffffffffffffffffffffffffffffffff1681526020018373ffffffffffffffffffffffffffffffffffffffff1673ffffffffffffffffffffffffffffffffffffffff1681526020018281526020019350505050602060405180830381600087803b15801561035657600080fd5b505af115801561036a573d6000803e3d6000fd5b505050506040513d602081101561038057600080fd5b8101908080519060200190929190505050508173ffffffffffffffffffffffffffffffffffffffff163373ffffffffffffffffffffffffffffffffffffffff167ff7fd12cc5821586915f84c901206bce3eaea96cc7139e99ea2b1271ff4499c20836040518082815260200191505060405180910390a3505056fea265627a7a72315820bfecf8de47bc9970a051dd8cf4fed6e1924ee4480fb5139dc1b8f60b0f6cfcca64736f6c63430005100032",
  "source": "// SPDX-License-Identifier: Apache License 2.0\n\npragma solidity >0.5.0 <0.9.0;\n\n// The IERC20 Interface tells the cUSD_spender contract what functions are available on the cUSD contract\ninterface IERC20 {\n    function totalSupply() external view returns (uint256);\n    function balanceOf(address account) external view returns (uint256);\n    function transfer(address recipient, uint256 amount) external returns (bool);\n    function allowance(address owner, address spender) external view returns (uint256);\n    function approve(address spender, uint256 amount) external returns (bool);\n    function transferFrom(address sender, address recipient, uint256 amount) external returns (bool);\n\n    event Transfer(address indexed from, address indexed to, uint256 value);\n    event Approval(address indexed owner, address indexed spender, uint256 value);\n}\n\n/* \n\nThis is a useless contract that exists to demonstrate how you can set up a contract to\nspend cUSD on a users behalf.\n\n*/\n\ncontract cUSD_spender {\n\n    //\n    IERC20 public cUSD;\n\n    // Pass the address of the cUSD contract to the constructor so the cUSD_spender\n    // contract knows where the cUSD contract is.\n\n    // cUSD (Alfajores testnet) = \"0x874069Fa1Eb16D44d622F2e0Ca25eeA172369bC1\"\n    // cUSD (Celo mainnet) =      \"0x765DE816845861e75A25fCA122bb6898B8B1282a\"\n    constructor(IERC20 _cUSDAddress) public {\n        cUSD = _cUSDAddress;\n    }\n\n    function send(address recipient, uint256 amount) public {\n        \n        // Check that this cUSD_spender contract is authorized to spend the specified amount\n        // of cUSD on behalf of the sender.\n        require(\n            cUSD.allowance(msg.sender, address(this)) >= amount, \"Not authorized\"\n        );\n        \n        // Transfer cUSD to the recipient\n        cUSD.transferFrom(msg.sender, recipient, amount);\n        \n        // Emit an event\n        // This event is unnecessary because the same thing is emitted by the cUSD\n        // contract, but it is good practice to emit events from contract functions.\n        emit cUSDTransferred(msg.sender, recipient, amount);\n    }\n    \n    // Define the event\n    event cUSDTransferred(address indexed from, address indexed to, uint256 value);\n}\n",
  "sourcePath": "/Users/josh/Documents/GitHub/contract_spending_cUSD/contracts/cUSD_spender.sol",
  "compiler": {
    "name": "solc",
    "version": "0.5.16+commit.9c3226ce.Emscripten.clang"
  },
  "schemaVersion": "3.4.1",
  "updatedAt": "2021-10-19T21:03:16.862Z",
  "networkType": "ethereum",
  "devdoc": {
    "methods": {}
  },
  "userdoc": {
    "methods": {}
  }
}